:020000040000FA
:10000000FB2B00308A000408840A820700340F3476
:1000100000340234403400340A3470343034043450
:10002000003410340A3404342734143474340C3457
:10003000AE345E347C3461346A3465345F346634A3
:02004000723418
:1006E0000234831605111F1185109F108312051106
:1006F00085108512051408008316851205111F1137
:1007000085109F1005101F1041308312A100EE309C
:10071000A000A00B892BA10B892B00007123831251
:10072000051505100B30A1006230A000A00B962B20
:10073000A10B962B00008312A201A3012208013E07
:1007400084000120A0000130A1002308073C013EE5
:10075000AB2B0310A10DFF3E031DA92B2108200583
:10076000031DB32BB62B83128516B82B831285126B
:1007700085140330A1009730A000A00BBD2BA10B66
:10078000BD2BC22B831285100330A1009730A0002F
:10079000A00BC82BA10BC82BCD2B01308312A000BE
:1007A0002008A30708302302031CD72BD82B9E2B2D
:1007B0000130A0002008A20714302202031CE12B04
:1007C000E22B9D2B051105140330A1009730A000EA
:1007D000A00BE82BA10BE82BED2B831285104130E9
:1007E000A100EE30A000A00BF32BA10BF32B000017
:0E07F0007123F92B00287023A40083017C2BB9
:02400E00D431AB
:00000001FF
