:020000040000FA
:10000000FB2B00308A000408840A820700340F3476
:1000100000340234403400340A340434C1343A34F5
:100020006334933402340F34723498347D342F3473
:1000300003344F34C83461346A3465345F34663411
:02004000723418
:1006EC000234831605111F1185109F1083120511FA
:1006FC0085108512051408008316851205111F112B
:10070C0085109F1005101F1041308312A100EE3090
:10071C00A000A00B8F2BA10B8F2B00007723831233
:10072C00051505100B30A1006230A000A00B9C2B0E
:10073C00A10B9C2B00008312A201A3012208013EF5
:10074C0084000120A0000130A1002308073C013ED9
:10075C00B12B0310A10DFF3E031DAF2B210820056B
:10076C000319BB2B83128516BD2B8312851285149E
:10077C000330A1009730A000A00BC22BA10BC22B01
:10078C00C72B831285100330A1009730A000A00B5B
:10079C00CD2BA10BCD2BD22B01308312A000200826
:1007AC00A30708302302031CA42B0130A00020084F
:1007BC00A20714302202031CA32B051105140330CD
:1007CC00A1009730A000A00BE92BA10BE92BEE2B7D
:1007DC00831285104130A100EE30A000A00BF42B49
:1007EC00A10BF42B00007723FA2B7623A4008301B2
:0207FC00822B4E
:02400E00D431AB
:00000001FF
