:020000040000FA
:10000000FB2B00308A000408840A820700340F3476
:1000100000340234403400340834C934F4348934B0
:1000200036348D34B5341B345E34123418346934AC
:10003000F734BF34A43461346A3465345F346634D1
:02004000723418
:1006B0000234831605111F1185109F108312051136
:1006C00085108512051408008316851205111F1167
:1006D00085109F1005101F1041308312A100EE30CD
:1006E000A000A00B712BA10B712B000059238312CA
:1006F000051505100B30A1006230A000A00B7E2B69
:10070000A10B7E2B000003308312A1009730A000C4
:10071000A00B882BA10B882B8D2B03308312A100FB
:100720009730A000A00B922BA10B922B972B03309C
:100730008312A1009730A000A00B9C2BA10B9C2B37
:10074000A12B8312A201A3012208013E84000120F3
:10075000A0000130A1002308073C013EB12B03108B
:10076000A10DFF3E031DAF2B210820050319BB2B54
:1007700083128516BD2B8312851285140330A100C8
:100780009730A000A00BC22BA10BC22BC72B83124A
:1007900085100330A1009730A000A00BCD2BA10B3A
:1007A000CD2BD22B01308312A0002008A3070830E4
:1007B0002302031CA42B0130A0002008A207143040
:1007C0002202031CA32B051105140330A10097304E
:1007D000A000A00BE92BA10BE92BEE2B83128510B7
:1007E0004130A100EE30A000A00BF42BA10BF42BA4
:0E07F00000005923FA2B5823A4008301642B28
:02400E00D431AB
:00000001FF
